:100000000C945D000C9485000C9485000C94850084
:100010000C9485000C9485000C9485000C9485004C
:100020000C9485000C9485000C9485000C9485003C
:100030000C9485000C9485000C9485000C9485002C
:100040000C944D020C9485000C94BD020C94970204
:100050000C9485000C9485000C9485000C9485000C
:100060000C9485000C9485000000000024002700FB
:100070002A0000000000250028002B0004040404CE
:100080000404040402020202020203030303030342
:10009000010204081020408001020408102001021F
:1000A00004081020000000080002010000030407FB
:1000B0000000000000000000D50311241FBECFEF98
:1000C000D8E0DEBFCDBF11E0A0E0B1E0E4E1F8E0B0
:1000D00002C005900D92A433B107D9F721E0A4E343
:1000E000B1E001C01D92AC3DB207E1F710E0CDE5F3
:1000F000D0E004C02197FE010E940204CC35D10754
:10010000C9F70E94EF020C9408040C940000E7EA7F
:10011000F0E02491E3E9F0E09491EFE7F0E0E4917E
:10012000EE23C9F0222339F0233001F1A8F4213065
:1001300019F1223029F1F0E0EE0FFF1FEE58FF4FCA
:10014000A591B4912FB7F894EC91811126C09095A8
:100150009E239C932FBF08952730A9F02830C9F023
:10016000243049F7209180002F7D03C0209180002A
:100170002F7720938000DFCF24B52F7724BDDBCFEE
:1001800024B52F7DFBCF2091B0002F772093B000B6
:10019000D2CF2091B0002F7DF9CF9E2BDACFE3E9AB
:1001A000F0E02491EFE7F0E08491882399F090E06B
:1001B000880F991FFC01E859FF4FA591B491FC01EC
:1001C000EE58FF4F859194918FB7F894EC91E22B04
:1001D000EC938FBF0895CF93DF93EC010E94CF0083
:1001E000209729F480E0DF91CF910C948700CF3FD6
:1001F000D10511F481E0F7CFE7EAF0E0E491E330D4
:1002000029F140F4E130B1F0E230D9F0C038D10545
:100210008CF7E8CFE73021F1E83051F1E430B1F765
:1002200080918000806280938000D0938B00C09387
:100230008A0004C084B5806884BDC7BDDF91CF91BA
:10024000089584B5806284BDC8BDF8CF80918000D8
:10025000806880938000D0938900C0938800EECF9F
:100260008091B00080688093B000C093B300E6CF67
:100270008091B00080628093B000C093B400DECF64
:10028000AF92BF92CF92DF92EF92FF920F931F93A4
:10029000CF93DF936C017B018B01040F151FEB01E2
:1002A0005E01AE18BF08C017D10759F06991D60199
:1002B000ED91FC910190F081E02DC6010995892B0B
:1002C00079F7C501DF91CF911F910F91FF90EF90CA
:1002D000DF90CF90BF90AF900895FC01538D448D77
:1002E000252F30E0842F90E0821B930B541710F0E1
:1002F000CF96089501970895FC01918D828D9817EE
:1003000061F0A28DAE0FBF2FB11D5D968C91928DC5
:100310009F5F9F73928F90E008958FEF9FEF0895F6
:10032000FC01918D828D981731F0828DE80FF11DBF
:10033000858D90E008958FEF9FEF0895FC01918DDA
:10034000228D892F90E0805C9F4F821B91098F73D3
:100350009927089586E391E00E949E0121E0892B70
:1003600009F420E0822F089580E090E0892B29F0A5
:100370000E94AA0181110C9400000895FC01A48D33
:10038000A80FB92FB11DA35ABF4F2C91848D90E0B7
:1003900001968F739927848FA689B7892C93A0899A
:1003A000B1898C91837080648C93938D848D981324
:1003B00006C00288F389E02D80818F7D80830895B7
:1003C000EF92FF920F931F93CF93DF93EC0181E0A5
:1003D000888F9B8D8C8D98131AC0E889F98980814C
:1003E00085FF15C09FB7F894EE89FF896083E8897F
:1003F000F98980818370806480839FBF81E090E071
:10040000DF91CF911F910F91FF90EF900895F62EFD
:100410000B8D10E00F5F1F4F0F731127E02E8C8D97
:100420008E110CC00FB607FCFACFE889F9898081DC
:1004300085FFF5CFCE010E94BE01F1CFEB8DEC0F11
:10044000FD2FF11DE35AFF4FF0829FB7F8940B8FF9
:10045000EA89FB8980818062CFCFCF93DF93EC0163
:10046000888D8823B9F0AA89BB89E889F9898C919C
:1004700085FD03C0808186FD0DC00FB607FCF7CF58
:100480008C9185FFF2CF808185FFEDCFCE010E9458
:10049000BE01E9CFDF91CF9108951F920F920FB661
:1004A0000F9211242F933F938F939F93AF93BF93FA
:1004B0008091D8019091D901A091DA01B091DB012E
:1004C0003091D70123E0230F2D3758F50196A11D58
:1004D000B11D2093D7018093D8019093D901A093A7
:1004E000DA01B093DB018091D3019091D401A09106
:1004F000D501B091D6010196A11DB11D8093D30104
:100500009093D401A093D501B093D601BF91AF9140
:100510009F918F913F912F910F900FBE0F901F9041
:10052000189526E8230F0296A11DB11DD2CF1F9268
:100530000F920FB60F9211242F933F934F935F9317
:100540006F937F938F939F93AF93BF93EF93FF939B
:1005500086E391E00E94BE01FF91EF91BF91AF91C0
:100560009F918F917F916F915F914F913F912F91CB
:100570000F900FBE0F901F9018951F920F920FB6FD
:100580000F9211242F938F939F93EF93FF93E091FA
:100590004601F09147018081E0914C01F0914D01BD
:1005A00082FD1BC0908180914F018F5F8F732091DE
:1005B0005001821741F0E0914F01F0E0EA5CFE4FFC
:1005C000958F80934F01FF91EF919F918F912F9184
:1005D0000F900FBE0F901F9018958081F4CF7894E4
:1005E00084B5826084BD84B5816084BD85B5826038
:1005F00085BD85B5816085BD80916E0081608093E9
:100600006E00109281008091810082608093810051
:100610008091810081608093810080918000816061
:10062000809380008091B10084608093B1008091BC
:10063000B00081608093B00080917A0084608093E4
:100640007A0080917A00826080937A0080917A00AB
:10065000816080937A0080917A00806880937A002C
:100660001092C100E0914601F091470182E0808341
:10067000E0914201F09143011082E0914401F09138
:1006800045018FEC808310924E01E0914A01F09178
:100690004B0186E08083E0914801F091490180811F
:1006A00080618083E0914801F091490180818860F8
:1006B0008083E0914801F0914901808180688083C6
:1006C000E0914801F091490180818F7D80830E94F3
:1006D000CF0090E080E00E94EB004EE150E062E14C
:1006E00071E086E391E00E94400142E050E061E366
:1006F00071E086E391E00E944001C0E0D0E002E0BA
:1007000010E0EE24E394F12C93E0C92ED12C86E383
:1007100091E00E949E0118161906DCF486E391E030
:100720000E947C018F3681F58091340190913501D2
:1007300081309105B9F028F082309105E1F00397FE
:1007400041F489E190E00E94EB00F0923501E092E3
:1007500034012097E1F20E94AA018823C1F20E948D
:100760000000D5CF85E590E00E94EB0010933501A5
:1007700000933401EECF8FEF90E00E94EB00D09217
:100780003501C0923401E5CF883719F780913401E3
:10079000909135010497E8F690E080E00E94EB002C
:1007A0001092350110923401D4CFE6E3F1E01382C8
:1007B000128288EE93E0A0E0B0E084839583A68364
:1007C000B78384E091E09183808385EC90E0958706
:1007D000848784EC90E09787868780EC90E0918B0B
:1007E000808B81EC90E0938B828B82EC90E0958BF8
:1007F000848B86EC90E0978B868B118E128E138EF5
:10080000148E0895EE0FFF1F0590F491E02D0994CA
:04081000F894FFCF8A
:1008140000000000E00140016D012D029E017C01F9
:10082400900153656E642027782720666F72204FED
:100834004646207C7C20276F2720666F72204F4E0F
:04084400000D0A0099
:00000001FF
