:100000000C9463000C948B000C948B000C948B006C
:100010000C948B000C948B000C948B000C94AC070C
:100020000C948B000C948B000C948B000C948B0024
:100030000C948B000C948B000C948B000C948B0014
:100040000C9462070C948B000C9454080C942E08AA
:100050000C948B000C948B000C948B000C948B00F4
:100060000C948B000C948B000000000024002700EF
:100070002A000000000023002600290000000008DC
:10008000000201000003040700000000000000005F
:10009000010204081020408001020408102001021F
:1000A0000408102000000000250028002B00040494
:1000B0000404040404040202020202020303030310
:1000C00003030200860811241FBECFEFD8E0DEBF75
:1000D000CDBF22E0AAE4B1E001C01D92A734B2076F
:1000E000E1F711E0A0E0B1E0EEECFEE102C0059026
:1000F0000D92AA34B107D9F710E0C3E6D0E004C0EE
:100100002197FE010E94CC0AC236D107C9F70E948E
:10011000D0080C94650F0C940000833081F028F413
:10012000813099F08230A9F008958730A9F08830A5
:10013000C9F08430B1F4809180008F7D03C080913C
:1001400080008F7780938000089584B58F7784BD79
:10015000089584B58F7DFBCF8091B0008F77809319
:10016000B00008958091B0008F7DF9CFCF93DF93D9
:10017000282F30E0F901E458FF4F8491F901E0574E
:10018000FF4FD491F901E255FF4FC491CC23A1F068
:1001900081110E948D00EC2FF0E0EE0FFF1FEE5852
:1001A000FF4FA591B491EC91ED2381E090E009F42B
:1001B00080E0DF91CF91089580E090E0FACF1F9327
:1001C000CF93DF93282F30E0F901E458FF4F84915B
:1001D000F901E057FF4FD491F901E255FF4FC49167
:1001E000CC23A9F0162F81110E948D00EC2FF0E096
:1001F000EE0FFF1FEC55FF4FA591B4918FB7F89408
:10020000EC91111108C0D095DE23DC938FBFDF91F4
:10021000CF911F910895DE2BF8CFCF93DF9390E01D
:10022000FC01E057FF4F249182559F4FFC018491C0
:100230008823D1F090E0880F991FFC01E859FF4F07
:10024000A591B491FC01EC55FF4FC591D49161117A
:100250000EC09FB7F8948C91E22FE0958E238C937B
:100260002881E223E8839FBFDF91CF9108958FB764
:10027000F894EC91E22BEC938FBFF6CF2FB7F89464
:100280006091700170917101809172019091730180
:100290002FBF08950895AF92BF92CF92DF92EF9251
:1002A000FF920F931F93CF93DF936C017B018B0120
:1002B000040F151FEB015E01AE18BF08C017D10770
:1002C00059F06991D601ED91FC910190F081E02DFA
:1002D000C6010995892B79F7C501DF91CF911F914F
:1002E0000F91FF90EF90DF90CF90BF90AF90089567
:1002F000FC01538D448D252F30E0842F90E0821B2C
:10030000930B541710F0CF96089501970895FC01B0
:10031000918D828D981761F0A28DAE0FBF2FB11D08
:100320005D968C91928D9F5F9F73928F90E0089560
:100330008FEF9FEF0895FC01918D828D981731F01A
:10034000828DE80FF11D858D90E008958FEF9FEF6E
:100350000895FC01918D228D892F90E0805C9F4F44
:10036000821B91098F73992708958EE891E00E946E
:10037000A90121E0892B09F420E0822F089580E073
:1003800090E0892B29F00E94B50181110C940000A6
:100390000895FC01A48DA80FB92FB11DA35ABF4F1A
:1003A0002C91848D90E001968F739927848FA68974
:1003B000B7892C93A089B1898C91837080648C93C8
:1003C000938D848D981306C00288F389E02D808177
:1003D0008F7D80830895EF92FF920F931F93CF93A9
:1003E000DF93EC0181E0888F9B8D8C8D98131AC070
:1003F000E889F989808185FF15C09FB7F894EE8957
:10040000FF896083E889F9898081837080648083B3
:100410009FBF81E090E0DF91CF911F910F91FF90FE
:10042000EF900895F62E0B8D10E00F5F1F4F0F73A6
:100430001127E02E8C8D8E110CC00FB607FCFACF61
:10044000E889F989808185FFF5CFCE010E94C90135
:10045000F1CFEB8DEC0FFD2FF11DE35AFF4FF08232
:100460009FB7F8940B8FEA89FB8980818062CFCF98
:10047000CF93DF93EC01888D8823B9F0AA89BB89DB
:10048000E889F9898C9185FD03C0808186FD0DC0C6
:100490000FB607FCF7CF8C9185FFF2CF808185FFE7
:1004A000EDCFCE010E94C901E9CFDF91CF91089530
:1004B00090E080E00895FC01448155816081718164
:1004C0008BE292E00C944B01CF93DF93EC0160E060
:1004D0008E810E94DF0061E08E810E94DF0060E07B
:1004E0008E810E94DF008BE891E00197F1F7DF91A8
:1004F000CF910895CF92DF92EF92FF920F931F93C7
:10050000CF93DF936C017C0187E0E80EF11CD0E013
:10051000C0E0062F10E0B8010C2E02C0759567955B
:100520000A94E2F76170F70181917F010E94DF0078
:100530002196C430D10579F7C601DF91CF911F9183
:100540000F91FF90EF90DF90CF900C946402CF92C8
:10055000DF92EF92FF920F931F93CF93DF93EC0103
:10056000F62E642F8C810E94DF008D818F3F19F061
:1005700060E00E94DF000F2D10E08F8584FF25C012
:100580006E0187E0C80ED11CF12CE12CB8010E2CB5
:1005900002C0759567950A94E2F76170F601819142
:1005A0006F010E94DF00FFEFEF1AFF0A88E0E816F4
:1005B000F10461F7CE01DF91CF911F910F91FF9070
:1005C000EF90DF90CF900C946402B80184E07595B1
:1005D00067958A95E1F7CE010E947A026F2DCE01D0
:1005E000DF91CF911F910F91FF90EF90DF90CF900F
:1005F0000C947A0240E0682F8BE292E00C94A70200
:1006000081E00E94FA028BE39FE10197F1F70895E0
:10061000CF93DF93823029F490913A0298609093BF
:100620003A0280933E0210923F0280E4809340029F
:1006300080E18093410280E58093420261E08091F5
:100640002F020E940D01809130028F3F19F061E06E
:100650000E940D0161E0809131020E940D01CBE208
:10066000D2E09E012B52324080913A0284FD0BC0B1
:1006700084E090E021962817390744F461E08E81E8
:100680000E940D01EECF88E090E0F4CF8BE39DE077
:100690000197F1F760E080912F020E94DF0060E097
:1006A000809131020E94DF00809130028F3F19F06B
:1006B00060E00E94DF0080913A0284FD34C063E074
:1006C0008BE292E00E947A02CBE4D6E4CE0101975D
:1006D000F1F763E08BE292E00E947A022197F1F752
:1006E00063E08BE292E00E947A0283E592E0019758
:1006F000F1F762E08BE292E00E947A0280913A0286
:1007000080620E94FA0284E080933B028CE00E94A7
:10071000FA020E94000382E080933C0286E0DF91AF
:10072000CF910C94FA0280620E94FA028BE496E464
:100730000197F1F780913A0280620E94FA0283E504
:1007400092E00197F1F780913A0280620E94FA02EA
:10075000D5CF643008F063E090913E02691710F045
:100760006FEF690FE62FF0E0E55DFD4F9489890F8B
:1007700080680C94FA0241E00E94A70281E090E0B8
:100780000895FC0180819181009711F00C946E0B0B
:100790000895EF92FF920F931F93CF93DF93EC0195
:1007A0007B018A0188819981009729F02A813B8108
:1007B0002417350788F4B8016F5F7F4F0E94F70B4D
:1007C000009791F0998388831B830A832C813D8154
:1007D000232B11F4FC0110821D830C83B701888147
:1007E00099810E94BD0C0CC088819981009711F0FD
:1007F0000E946E0B198218821D821C821B821A8233
:10080000CE01DF91CF911F910F91FF90EF9008954E
:100810000F931F93CF93DF9300D000D000D0CDB7BC
:10082000DEB78C01842F0E94A9031A8219821C82D0
:100830001B821E821D82F801608171816115710524
:1008400031F044815581CE0101960E94C903CE0149
:1008500001960E945B02CE0101960E94C10326967A
:100860000FB6F894DEBF0FBECDBFDF91CF911F91C1
:100870000F910895FC011182108213821282158259
:100880001482FB0101900020E9F73197AF01461B6C
:10089000570B0C94C903CF92DF92EF92FF920F9304
:1008A0001F93CF93DF93CDB7DEB763970FB6F8945E
:1008B000DEBF0FBECDBF6B017C016EE271E0CE01E9
:1008C0000E960E943A04C701B6012CE330E040E0E6
:1008D00050E00E94AA0A7F936F933F932F9385E283
:1008E00091E09F938F938E010F5F1F4F1F930F9384
:1008F0000E94C40CB801CE0108960E943A048E856D
:100900009F850FB6F894DEBF0FBECDBF009709F4E8
:100910004BC0688579856115710509F443C0488924
:1009200059892C853D8542175307E0F10E94BD0C83
:100930008C859D859B8B8A8B1D861C86CE01089697
:100940000E94C10365E080E00E94A9031986188611
:100950001B861A861D861C866E857F85611571052E
:1009600031F04A895B89CE0108960E94C903CE0105
:1009700008960E945B02CE0108960E94C103CE0138
:100980000E960E94C10363960FB6F894DEBF0FBEA9
:10099000CDBFDF91CF911F910F91FF90EF90DF902E
:1009A000CF9008950E946E0B888599859F878E87CA
:1009B0008A859B85998B888B8C859D859B8B8A8B63
:1009C000198618861B861A86B7CF1F93CF93DF939D
:1009D00000D000D000D0CDB7DEB7FC0180918601F9
:1009E000909187018230910509F4B0C140F40097DD
:1009F00009F1019709F45CC181E090E096C1833070
:100A0000910509F4E9C10497B9F780819181853096
:100A1000910509F40DC28630910509F43EC0029794
:100A200059F7809174018F5F823309F412C2809369
:100A30007401E2CF808191818330910509F46CC00B
:100A400030F5009709F45CC00297B1F682818530D9
:100A500099F6809100018C3009F467C08F3FF9F45A
:100A60008CE080930001E2ECF0E014911F3FB9F0BC
:100A7000113009F49DC008F482C0123009F4B6C0E8
:100A800017FD0DC061E08CE00E940D015AC0853059
:100A9000910541F0069709F0AFCF0E94000390E066
:100AA00080E043C1109289011092880110928B015D
:100AB00010928A0160E070E0CB010E944B046FE26B
:100AC00071E0CE0101960E943A0440E060E0CE0160
:100AD00001960E940804CE0101960E94C10365E4BC
:100AE00071E0CE0101960E943A0441E060E0CE013F
:100AF00001960E940804CE0101960E94C103CFCF47
:100B00008091880190918901CC969093890180937E
:100B1000880181E090E002C084E090E0909387013A
:100B20008093860182E090E000C1E2ECF0E0149155
:100B300017FDB5CF61E08CE00E940D01112309F48F
:100B400077C0123009F08CC08091B100887F82603C
:100B50008093B10089EF8093B30088EC90E0A0E02F
:100B6000B0E080937A0190937B01A0937C01B093D5
:100B70007D018091700082608093700090CF14BCE2
:100B800015BC84B5826084BD85B5816085BDEAEB06
:100B9000F0E0E491F0E0EE0FFF1FEC55FF4F859180
:100BA0009491ECE9F0E0E491E093790110E0C2CF98
:100BB0001092800010928100809181008860809363
:100BC000810080918100816080938100EAEBF0E0F8
:100BD000E491F0E0EE0FFF1FEC55FF4F85919491EB
:100BE000ECE9F0E0E491E0937801A4CF1092B0003A
:100BF0001092B1008091B00082608093B00080912B
:100C0000B10081608093B100EAEBF0E0E491F0E0A4
:100C1000EE0FFF1FEC55FF4F859194919093770154
:100C200080937601ECE9F0E0E491E093750182CFE6
:100C300085B5887F826085BD89EF87BD88EC90E0AF
:100C4000A0E0B0E08093820190938301A09384019F
:100C5000B093850180916E00826080936E001FCFFB
:100C60001130F1F480918100887F81608093810050
:100C70008FEC97E0909389008093880088EC90E057
:100C8000A0E0B0E080937E0190937F01A09380016B
:100C9000B093810180916F00826080936F00FFCEDE
:100CA000123021F01111FBCE8FECC7CF8FEC53CF58
:100CB000808191818330910559F180F40097E9F0AA
:100CC000019709F099CE60918801709189016C3388
:100CD000710508F491CE6C53710915C084309105EB
:100CE00071F16091880170918901059709F084CEB6
:100CF00090E080E00E944B04D2CE60918801709118
:100D00008901645C7F4F7093890160938801F0CF03
:100D10008091880190918901CC9708F46DCE82E092
:100D200090E0909387018093860126960FB6F89401
:100D3000DEBF0FBECDBFDF91CF911F9108950E94FE
:100D400000031092870110928601ECCE8081918180
:100D50008330910509F4E2CE30F5029709F04CCECC
:100D600082818A3009F048CE6091880170918901B2
:100D700061507109709389016093880180918A01A3
:100D800090918B01019690938B0180938A0190E062
:100D900080E00E944B048091880190918901892B09
:100DA00009F07DCEB6CE8430910559F2069709F050
:100DB00023CE80918C0190918D0120918A013091F8
:100DC0008B01820F931F90938D0180938C01109261
:100DD0008B0110928A0163CE8081918183309105CD
:100DE00009F49DCFB0F4009709F48ACE81309105C3
:100DF00009F002CE20918801309189012C33310510
:100E000008F4FACD2C5331093093890120938801DD
:100E100085CE8530910519F008F03CCE92CF63E382
:100E200071E0CE0101960E943A0441E065E05FCE98
:100E300060918C0170918D0190E080E00E944B04E4
:100E40006AE371E0CE0101960E943A0441E061E05C
:100E50004ECE1092740175CFEF92FF920F931F93B5
:100E6000CF93DF9300D0CDB7DEB7E0908601F0904E
:100E700087010E94E5040297E1F400918601109138
:100E8000870186E090E09A838983F0928701E0925F
:100E90008601CE0101960E94E50485E090E09A83E8
:100EA00089831093870100938601CE0101960E94E9
:100EB000E5040F900F90DF91CF911F910F91FF905C
:100EC000EF9008951F920F920FB60F9211242F9357
:100ED0003F938F939F93AF93BF93809170019091B5
:100EE0007101A0917201B091730130916F0123E003
:100EF000230F2D3758F50196A11DB11D20936F01C9
:100F00008093700190937101A0937201B09373016B
:100F100080916B0190916C01A0916D01B0916E0177
:100F20000196A11DB11D80936B0190936C01A0935C
:100F30006D01B0936E01BF91AF919F918F913F91E1
:100F40002F910F900FBE0F901F90189526E8230F3A
:100F50000296A11DB11DD2CF1F920F920FB60F9214
:100F600011242F933F934F935F936F937F938F93AE
:100F70009F93AF93BF93EF93FF9380917A019091EA
:100F80007B01A0917C01B0917D01892B8A2B8B2B59
:100F9000D1F190917501E0917601F0917701808116
:100FA0008927808380917A0190917B01A0917C01B7
:100FB000B0917D01181619061A061B069CF4809143
:100FC0007A0190917B01A0917C01B0917D01019704
:100FD000A109B10980937A0190937B01A0937C01D0
:100FE000B0937D01FF91EF91BF91AF919F918F9150
:100FF0007F916F915F914F913F912F910F900FBE15
:101000000F901F90189580910001E2ECF0E0E491C0
:101010009FEF90930001E13051F030F0E23069F041
:1010200060E00E94DF00DECF10926E00F9CF909159
:101030006F009D7F90936F00F3CF909170009D7F24
:101040009093700091E09093B0009091B100987FE0
:1010500094609093B1001092B300E2CF1F920F9270
:101060000FB60F9211242F933F934F935F936F937B
:101070007F938F939F93AF93BF93EF93FF938EE8EC
:1010800091E00E94C901FF91EF91BF91AF919F91B3
:101090008F917F916F915F914F913F912F910F9021
:1010A0000FBE0F901F9018951F920F920FB60F92C0
:1010B00011242F938F939F93EF93FF93E0919E01C1
:1010C000F0919F018081E091A401F091A50182FD42
:1010D0001BC090818091A7018F5F8F732091A80121
:1010E000821741F0E091A701F0E0E257FE4F958FA3
:1010F0008093A701FF91EF919F918F912F910F9076
:101100000FBE0F901F9018958081F4CFEEE8F1E0AC
:101110001382128288EE93E0A0E0B0E0848395838E
:10112000A683B7838BE091E09183808385EC90E088
:101130009587848784EC90E09787868780EC90E0A1
:10114000918B808B81EC90E0938B828B82EC90E092
:10115000958B848B86EC90E0978B868B118E128E0C
:10116000138E148EEBE2F2E0138212828DE191E095
:101170009183808385E0848386E0858387E086830E
:1011800088E0878389E080878AE081878BE0828797
:101190001386148615861686178681E00C9408033C
:1011A000CF93DF9300D0CDB7DEB7789484B582605B
:1011B00084BD84B5816084BD85B5826085BD85B5FB
:1011C000816085BD80916E00816080936E00109279
:1011D00081008091810082608093810080918100F4
:1011E0008160809381008091800081608093800085
:1011F0008091B10084608093B1008091B0008160E3
:101200008093B00080917A00846080937A0080910E
:101210007A00826080937A0080917A008160809366
:101220007A0080917A00806880937A001092C100E1
:10123000E0919E01F0919F0182E08083E0919A010C
:10124000F0919B011082E0919C01F0919D018FEC47
:1012500080831092A601E091A201F091A30186E0A3
:101260008083E091A001F091A10180818061808361
:10127000E091A001F091A101808188608083E091DC
:10128000A001F091A101808180688083E091A0019C
:10129000F091A10180818F7D808382E00E9408030C
:1012A0000E94000380913C02982F926090933C0230
:1012B00086600E94FA0260E080E00E94A9038091AB
:1012C0003C028E7F80933C0284600E94FA028091EF
:1012D0003B028D7F80933B0288600E94FA0260E0AF
:1012E00082E00E940D0160E083E00E940D0160E059
:1012F00084E00E940D0185E090E09A83898310923A
:1013000087011092860110928D0110928C01CE01FE
:1013100001960E94E50480E0682E80E0782E442447
:10132000439492E0E92EF12C23E0C22ED12C34E03C
:10133000A32EB12C88248394912C80916301811178
:101340000CC00E943E0160935F0170936001809326
:101350006101909362014092630182E00E94B600B5
:10136000582E80935E0183E00E94B600182F809370
:101370005D0184E00E94B600952D990F990F512EC2
:10138000550C592A582A8091500181110CC00E9495
:101390003E0160934C0170934D0180934E019093F8
:1013A0004F014092500100914A0110914B010130D0
:1013B000110509F452C0E8F10230110509F44AC0E0
:1013C0000E943E0100915F01109160012091610136
:1013D00030916201601B710B820B930B64367105B7
:1013E00081059105D0F00E943E0160935F017093EA
:1013F00060018093610190936201F0925901E09243
:10140000580180915A018F5F8B3008F069C080933A
:101410005A0188E591E00E942C076114710409F4D7
:101420008CCF0E94B501882309F487CF0E94000069
:1014300084CF552029F290924B0180924A010E945C
:101440003E0160934C0170934D0180934E01909347
:101450004F01B6CF5110B4CFEECF0E943E01209184
:101460004C0130914D0140914E0150914F01621B52
:10147000730B840B950B623371058105910508F49C
:101480009FCF552081F0F0924B01E0924A0184E019
:1014900058120EC010925C0110925B018BE591E036
:1014A0000E942C078DCF10924B0110924A0188CFD9
:1014B00082E0581205C010935C0100935B01EECFEF
:1014C00086E0581205C0B0925C01A0925B01E6CFA5
:1014D00081E05812E3CFD0925C01C0925B01DECF75
:1014E00040925A0196CF2F923F924F925F926F9205
:1014F0007F928F929F92AF92BF92CF92DF92EF92A4
:10150000FF920F931F93CF93DF93CDB7DEB7CA1B24
:10151000DB0B0FB6F894DEBF0FBECDBF09942A884F
:10152000398848885F846E847D848C849B84AA84F7
:10153000B984C884DF80EE80FD800C811B81AA8184
:10154000B981CE0FD11D0FB6F894DEBF0FBECDBF4F
:10155000ED010895A1E21A2EAA1BBB1BFD010DC0CF
:10156000AA1FBB1FEE1FFF1FA217B307E407F50753
:1015700020F0A21BB30BE40BF50B661F771F881F2F
:10158000991F1A9469F760957095809590959B01C5
:10159000AC01BD01CF010895EE0FFF1F0590F4913E
:1015A000E02D09940F931F93CF93DF938230910521
:1015B00010F482E090E0E0914502F091460230E0C4
:1015C00020E0B0E0A0E0309799F42115310509F44E
:1015D0004AC0281B390B24303105D8F58A819B81FC
:1015E0006115710589F1FB0193838283FE0111C0AE
:1015F000408151810281138148175907E0F0481753
:10160000590799F4109761F012960C93129713965C
:101610001C933296CF01DF91CF911F910F910895C6
:101620000093450210934602F4CF2115310551F085
:101630004217530738F0A901DB019A01BD01DF0110
:10164000F801C1CFEF01F9CF909346028093450294
:10165000CDCFFE01E20FF31F819391932250310908
:1016600039832883D7CF2091430230914402232B22
:1016700041F42091030130910401309344022093FE
:10168000430220910101309102012115310541F4FD
:101690002DB73EB74091050150910601241B350B33
:1016A000E0914302F0914402E217F307A0F42E1BED
:1016B0003F0B2817390778F0AC014E5F5F4F2417B6
:1016C000350748F04E0F5F1F50934402409343028A
:1016D000819391939FCFF0E0E0E09CCFCF93DF9395
:1016E0000097E9F0FC01329713821282A091450223
:1016F000B0914602ED0130E020E01097A1F4208186
:101700003181820F931F20914302309144022817A8
:10171000390709F061C0F0934402E0934302DF917E
:10172000CF910895EA01CE17DF07E8F54A815B8182
:101730009E0141155105B1F7E901FB83EA83499107
:101740005991C40FD51FEC17FD0761F48081918179
:101750000296840F951FE901998388838281938182
:101760009B838A83F0E0E0E012968D919C91139721
:101770000097B9F52D913C911197CD010296820FFA
:10178000931F20914302309144022817390739F6FC
:10179000309751F51092460210924502B0934402E0
:1017A000A0934302BCCFD383C28340815181840F75
:1017B000951FC817D90761F44E5F5F4F88819981E3
:1017C000480F591F518340838A819B819383828371
:1017D0002115310509F0B0CFF0934602E0934502A0
:1017E0009ECFFD01DC01C0CF13821282D7CFB0E0C3
:1017F000A0E0EDEFFBE00C94750A8C01009751F42A
:10180000CB010E94D20A8C01C801CDB7DEB7E0E15E
:101810000C94910AFC01E60FF71F9C01225031093C
:10182000E217F30708F49DC0D901CD91DC9111971F
:10183000C617D70798F0C530D10530F3CE0104970D
:101840008617970708F3C61BD70B2297C193D1932E
:101850006D937C93CF010E946E0BD6CF5B01AC1AC7
:10186000BD0A4C018C0E9D1EA0914502B09146020E
:10187000512C412CF12CE12C109731F58091430231
:10188000909144028815990509F05CC046165706E8
:1018900008F058C08091010190910201009741F435
:1018A0008DB79EB74091050150910601841B950BA1
:1018B000E817F90708F055C0F0934402E09343029B
:1018C000F90171836083A0CF8D919C91119712963D
:1018D0006C90129713967C901397A815B90559F53B
:1018E0006C0142E0C40ED11CCA14DB0420F1AC012F
:1018F0004A195B09DA011296159780F062827382A9
:1019000051834083D9016D937C93E114F10471F00C
:10191000D7011396FC93EE93129776CF22968C0FF5
:101920009D1FF90191838083F301EFCFF09346026D
:10193000E093450269CF4816590608F42C017D0151
:10194000D3019ACFCB010E94D20A7C01009749F0C3
:10195000AE01B8010E94B40CC8010E946E0B870151
:1019600053CF10E000E050CFFB01DC0102C001903A
:101970000D9241505040D8F70895FB01DC010190D1
:101980000D920020E1F70895AEE0B0E0EAECFCE053
:101990000C94810A0D891E8986E08C831A83098341
:1019A0008FEF9FE79E838D83AE01475E5F4F6F8908
:1019B000788DCE0101960E94E70C2F813885020FA9
:1019C000131FF80110822E96E4E00C949D0AABE000
:1019D000B0E0EDEEFCE00C94730A7C013B018A015F
:1019E000FC0117821682838181FFC8C1CE01019656
:1019F0005C01F7019381F30193FD859193FF819140
:101A00003F01882309F453C1853239F493FD859150
:101A100093FF81913F01853229F4B70190E00E9444
:101A2000D70EE7CF912C212C312CFFE1F31538F0A4
:101A30008B3211F190F4803209F1833229F137FCB5
:101A40003CC020ED280F2A3050F536FE20C08AE039
:101A5000989E200D1124922E06C08D3291F0803375
:101A600071F7689430F8F30193FD859193FF8191AC
:101A70003F018111DACF21C0689431F8689432F8BF
:101A8000F2CF689433F8EFCF689434F8ECCFEAE003
:101A90002E9E200D1124222E689435F8E4CF8E322C
:101AA00029F436FC04C1689436F8DDCF8C3619F47D
:101AB000689437F8D8CF8836B1F2982F9F7D955427
:101AC0009330E0F08336A1F18337C1F1833509F01B
:101AD00063C02801F2E04F0E511CF801C080D18094
:101AE000692D70E036FC02C06FEF7FEFC6010E94E7
:101AF000C10E4C01689437F882010AC00C5F1F4F79
:101B0000FFE3F98388248394912C6501E89437F8E6
:101B100033FE2DC0522C8114910471F5552009F427
:101B200068CFB70180E290E00E94D70E5A94F6CFBA
:101B3000F801808189830E5F1F4FE4CF2801F2E016
:101B40004F0E511CF801C080D180692D70E036FC29
:101B500002C06FEF7FEFC6010E94CC0E4C018201E4
:101B6000D5CFB70180E290E00E94D70E2A942814C6
:101B7000190409F0B0F7CECFF60137FC859137FE96
:101B800081916F01B70190E00E94D70E51105A94D5
:101B9000F1E08F1A9108BFCF843619F0893609F029
:101BA00077C0F80137FE6BC06081718182819381BB
:101BB0000C5F1F4FF32DFF763F2E97FF09C09095C6
:101BC0008095709561957F4F8F4F9F4F689437F840
:101BD0002AE030E0A5010E94070FC82ECA188C2CFD
:101BE000432C36FE0CC0E89440F8C91440F434FE8F
:101BF00005C032FC03C0F32DFE7E4F2E892C44FE1F
:101C000095C0FE01EC0DF11D8081803309F087C085
:101C1000242D297E422E842D8870582E43FC95C099
:101C200040FE8FC09C2C821418F42C0C922C981817
:101C300044FE91C0B70180E390E00E94D70E42FEBF
:101C400009C088E790E041FE02C088E590E0B70156
:101C50000E94D70EC91408F48AC0CA94D12C9FEFF1
:101C6000C91AD90ACA0CDB1CF60182916F01B701AF
:101C700090E00E94D70EAC14BD04B1F74FCF608145
:101C80007181072E000C880B990B0E5F1F4F92CFAE
:101C9000D32CE894D4F82AE030E0853739F1232DAD
:101CA000297FD22E8F3601F148F48835A9F0F7014B
:101CB000868197812B96E2E10C948F0A803749F058
:101CC0008837A9F7D4FE02C06894D2F820E130E04A
:101CD0000DC06894D4F8F6CF34FE03C0822F86601E
:101CE000D82E20E132E002C028E030E0F801D7FE33
:101CF0000FC060817181828193810C5F1F4FA501AC
:101D00000E94070FC82ECA183D2CE89437F867CFF9
:101D10006081718190E080E00E5F1F4FF0CF42FC48
:101D200002C0839478CF8394839475CF842D867872
:101D300009F471CFF6CFB70180E290E00E94D70E90
:101D400083948214C0F3512C73CF522C58188214F0
:101D500008F46ECFF8CF842D867809F47BCF8BE220
:101D600041FE80E247FC8DE2B70190E071CFB70100
:101D700080E390E00E94D70E9A946CCF8FEF9FEF94
:101D800099CFFC010590615070400110D8F7809503
:101D900090958E0F9F1F0895FC0161507040019037
:101DA0000110D8F7809590958E0F9F1F08950F937F
:101DB0001F93CF93DF93182F092FEB018B8181FDA8
:101DC00009C01FEF0FEF812F902FDF91CF911F914F
:101DD0000F91089582FF14C02E813F818C819D81D7
:101DE000281739073CF4E881F981CF0101969983DE
:101DF000888310838E819F8101969F838E83E3CF9A
:101E0000E885F985812F0995892BA1F3DACFFA01AD
:101E1000AA27283051F1203181F1E8946F936E7F29
:101E20006E5F7F4F8F4F9F4FAF4FB1E03ED0B4E01A
:101E30003CD0670F781F891F9A1FA11D680F791F5B
:101E40008A1F911DA11D6A0F711D811D911DA11D6C
:101E500020D009F468943F912AE0269F112430197C
:101E6000305D3193DEF6CF010895462F4770405D17
:101E70004193B3E00FD0C9F7F6CF462F4F70405DC6
:101E80004A3318F0495D31FD4052419302D0A9F721
:101E9000EACFB4E0A6959795879577956795BA951B
:101EA000C9F700976105710508959B01AC010A2EE1
:101EB00006945795479537952795BA95C9F7620FB8
:0E1EC000731F841F951FA01D0895F894FFCF77
:101ECE00FF00004702800000000000EB014B01788C
:101EDE00013802A90187019B0100000000BB034BE2
:101EEE000158024A01253033643A253032640053DA
:101EFE006574005061757365640050726F6475632C
:0A1F0E00746976652054696D650062
:00000001FF
