:020000040000FA
:100000000C945D000C9485000C9485000C94850084
:100010000C9485000C9485000C9485000C9485004C
:100020000C9485000C9485000C9485000C9485003C
:100030000C9485000C9485000C9485000C9485002C
:100040000C9460020C9485000C94D0020C94AA02CB
:100050000C9485000C9485000C9485000C9485000C
:100060000C9485000C9485000000000024002700FB
:100070002A0000000000250028002B0004040404CE
:100080000404040402020202020203030303030342
:10009000010204081020408001020408102001021F
:1000A00004081020000000080002010000030407FB
:1000B0000000000000000000E80311241FBECFEF85
:1000C000D8E0DEBFCDBF11E0A0E0B1E0EAE3F8E0A8
:1000D00002C005900D92A433B107D9F721E0A4E343
:1000E000B1E001C01D92AC3DB207E1F710E0CDE5F3
:1000F000D0E004C02197FE010E941504CC35D10741
:10010000C9F70E9402030C941B040C940000E7EA58
:10011000F0E02491E3E9F0E09491EFE7F0E0E4917E
:10012000EE23C9F0222339F0233001F1A8F4213065
:1001300019F1223029F1F0E0EE0FFF1FEE58FF4FCA
:10014000A591B4912FB7F894EC91811126C09095A8
:100150009E239C932FBF08952730A9F02830C9F023
:10016000243049F7209180002F7D03C0209180002A
:100170002F7720938000DFCF24B52F7724BDDBCFEE
:1001800024B52F7DFBCF2091B0002F772093B000B6
:10019000D2CF2091B0002F7DF9CF9E2BDACFE7EAA6
:1001A000F0E0E491E33029F150F4E130C1F0E230C5
:1001B000D9F080389105BCF580E00C948700E730D9
:1001C00011F1E83041F1E430A1F720918000206284
:1001D0002093800090938B0080938A00089594B5BB
:1001E000906894BD87BD089594B5906294BD88BD14
:1001F00008952091800020682093800090938900CA
:100200008093880008959091B00090689093B0001A
:100210008093B30008959091B00090629093B000E5
:100220008093B400089581E0C8CFE3E9F0E0249121
:10023000EFE7F0E08491882399F090E0880F991F10
:10024000FC01E859FF4FA591B491FC01EE58FF4F16
:10025000859194918FB7F894EC91E22BEC938FBF3A
:100260000895AF92BF92CF92DF92EF92FF920F93D9
:100270001F93CF93DF936C017B018B01040F151F3C
:10028000EB015E01AE18BF08C017D10759F06991A4
:10029000D601ED91FC910190F081E02DC601099508
:1002A000892B79F7C501DF91CF911F910F91FF90B5
:1002B000EF90DF90CF90BF90AF900895FC01538DE9
:1002C000448D252F30E0842F90E0821B930B541730
:1002D00010F0CF96089501970895FC01918D828DBD
:1002E000981761F0A28DAE0FBF2FB11D5D968C9156
:1002F000928D9F5F9F73928F90E008958FEF9FEF95
:100300000895FC01918D828D981731F0828DE80F50
:10031000F11D858D90E008958FEF9FEF0895FC010A
:10032000918D228D892F90E0805C9F4F821B9109D7
:100330008F739927089584E391E00E948F0121E053
:10034000892B09F420E0822F089580E090E0892B2A
:1003500029F00E949B0181110C9400000895FC017A
:10036000A48DA80FB92FB11DA35ABF4F2C91848D16
:1003700090E001968F739927848FA689B7892C9373
:10038000A089B1898C91837080648C93938D848DC6
:10039000981306C00288F389E02D80818F7D8083C9
:1003A0000895EF92FF920F931F93CF93DF93EC0189
:1003B00081E0888F9B8D8C8D98131AC0E889F9890C
:1003C000808185FF15C09FB7F894EE89FF8960830F
:1003D000E889F98980818370806480839FBF81E090
:1003E00090E0DF91CF911F910F91FF90EF900895D2
:1003F000F62E0B8D10E00F5F1F4F0F731127E02EAD
:100400008C8D8E110CC00FB607FCFACFE889F989E4
:10041000808185FFF5CFCE010E94AF01F1CFEB8D3A
:10042000EC0FFD2FF11DE35AFF4FF0829FB7F894B8
:100430000B8FEA89FB8980818062CFCFCF93DF93D6
:10044000EC01888D8823B9F0AA89BB89E889F989EC
:100450008C9185FD03C0808186FD0DC00FB607FC21
:10046000F7CF8C9185FFF2CF808185FFEDCFCE0154
:100470000E94AF01E9CFDF91CF9108958091DA0119
:100480009091DB018130910561F030F0823091056F
:1004900071F0039789F008950E94150180E00C9493
:1004A00087000E94150189E190E00C94CF000E9422
:1004B000150185E590E0F9CF0E94150181E0EFCFAD
:1004C0001F920F920FB60F9211242F933F938F9389
:1004D0009F93AF93BF938091D6019091D701A09144
:1004E000D801B091D9013091D50123E0230F2D37E8
:1004F00058F50196A11DB11D2093D5018093D60119
:100500009093D701A093D801B093D9018091D101E4
:100510009091D201A091D301B091D4010196A11D77
:10052000B11D8093D1019093D201A093D301B093D8
:10053000D401BF91AF919F918F913F912F910F90D7
:100540000FBE0F901F90189526E8230F0296A11D4D
:10055000B11DD2CF1F920F920FB60F9211242F937D
:100560003F934F935F936F937F938F939F93AF933B
:10057000BF93EF93FF9384E391E00E94AF01FF915B
:10058000EF91BF91AF919F918F917F916F915F910B
:100590004F913F912F910F900FBE0F901F90189584
:1005A0001F920F920FB60F9211242F938F939F9348
:1005B000EF93FF93E0914401F09145018081E09138
:1005C0004A01F0914B0182FD1BC0908180914D0149
:1005D0008F5F8F7320914E01821741F0E0914D01A2
:1005E000F0E0EC5CFE4F958F80934D01FF91EF9111
:1005F0009F918F912F910F900FBE0F901F90189584
:100600008081F4CF789484B5826084BD84B58160A4
:1006100084BD85B5826085BD85B5816085BD8091CD
:100620006E00816080936E00109281008091810045
:10063000826080938100809181008160809381003D
:10064000809180008160809380008091B1008460FF
:100650008093B1008091B00081608093B000809160
:100660007A00846080937A0080917A00826080931F
:100670007A0080917A00816080937A0080917A007C
:10068000806880937A001092C100E0914401F0915B
:10069000450182E08083E0914001F09141011082A8
:1006A000E0914201F09143018FEC808310924C0164
:1006B000E0914801F091490186E08083E091460194
:1006C000F0914701808180618083E0914601F09143
:1006D0004701808188608083E0914601F091470165
:1006E000808180688083E0914601F091470180819C
:1006F0008F7D80830E9415011092DB011092DA0138
:100700000E943E024EE150E062E171E084E391E03C
:100710000E94310142E050E061E371E084E391E046
:100720000E943101C0E0D0E002E010E0EE24E3944A
:10073000F12C93E0C92ED12C84E391E00E948F012B
:10074000181619060CF584E391E00E946D018F36AE
:1007500071F58091DA019091DB0181309105E9F02A
:1007600030F082309105F1F08330910521F4F09260
:10077000DB01E092DA012091DA013091DB0182178E
:10078000930711F00E943E022097B1F20E949B0154
:10079000882391F20E940000CFCF1093DB010093D9
:1007A000DA01E9CFD092DB01C092DA01E4CF8837D9
:1007B00059F78091DA019091DB019C0121503109B8
:1007C00023303105C0F61092DB011092DA01D3CF4D
:1007D000E4E3F1E01382128288EE93E0A0E0B0E05F
:1007E00084839583A683B78384E091E0918380839B
:1007F00085EC90E09587848784EC90E097878687E6
:1008000080EC90E0918B808B81EC90E0938B828BDD
:1008100082EC90E0958B848B86EC90E0978B868BB6
:10082000118E128E138E148E0895EE0FFF1F0590F9
:10083000F491E02D0994F894FFCF00000000D1015D
:1008400031015E011E028F016D01810153656E64ED
:100850002027782720666F72204F4646207C7C2018
:0E086000276F2720666F72204F4E000D0A0092
:107E0000112484B714BE81FFF0D085E080938100F7
:107E100082E08093C00088E18093C10086E0809377
:107E2000C20080E18093C4008EE0C9D0259A86E02C
:107E300020E33CEF91E0309385002093840096BBD3
:107E4000B09BFECF1D9AA8958150A9F7CC24DD24C4
:107E500088248394B5E0AB2EA1E19A2EF3E0BF2EE7
:107E6000A2D0813461F49FD0082FAFD0023811F036
:107E7000013811F484E001C083E08DD089C08234E0
:107E800011F484E103C0853419F485E0A6D080C0E4
:107E9000853579F488D0E82EFF2485D0082F10E0AE
:107EA000102F00270E291F29000F111F8ED06801E7
:107EB0006FC0863521F484E090D080E0DECF843638
:107EC00009F040C070D06FD0082F6DD080E0C81688
:107ED00080E7D80618F4F601B7BEE895C0E0D1E017
:107EE00062D089930C17E1F7F0E0CF16F0E7DF06D8
:107EF00018F0F601B7BEE89568D007B600FCFDCFD4
:107F0000A601A0E0B1E02C9130E011968C91119780
:107F100090E0982F8827822B932B1296FA010C0160
:107F200087BEE89511244E5F5F4FF1E0A038BF0790
:107F300051F7F601A7BEE89507B600FCFDCF97BE46
:107F4000E89526C08437B1F42ED02DD0F82E2BD052
:107F50003CD0F601EF2C8F010F5F1F4F84911BD097
:107F6000EA94F801C1F70894C11CD11CFA94CF0C13
:107F7000D11C0EC0853739F428D08EE10CD085E9AC
:107F80000AD08FE07ACF813511F488E018D01DD067
:107F900080E101D065CF982F8091C00085FFFCCF94
:107FA0009093C60008958091C00087FFFCCF809118
:107FB000C00084FD01C0A8958091C6000895E0E648
:107FC000F0E098E1908380830895EDDF803219F02E
:107FD00088E0F5DFFFCF84E1DECF1F93182FE3DFCA
:107FE0001150E9F7F2DF1F91089580E0E8DFEE27F6
:047FF000FF270994CA
:027FFE00040479
:00000001FF
